{
  "contractName": "SupplyChain",
  "abi": [
    {
      "anonymous": false,
      "inputs": [
        {
          "indexed": false,
          "internalType": "uint256",
          "name": "productId",
          "type": "uint256"
        },
        {
          "indexed": false,
          "internalType": "string",
          "name": "stage",
          "type": "string"
        },
        {
          "indexed": false,
          "internalType": "string",
          "name": "location",
          "type": "string"
        },
        {
          "indexed": false,
          "internalType": "uint256",
          "name": "timestamp",
          "type": "uint256"
        }
      ],
      "name": "ProductMoved",
      "type": "event"
    },
    {
      "inputs": [
        {
          "internalType": "uint256",
          "name": "productId",
          "type": "uint256"
        },
        {
          "internalType": "string",
          "name": "stage",
          "type": "string"
        },
        {
          "internalType": "string",
          "name": "location",
          "type": "string"
        }
      ],
      "name": "moveProduct",
      "outputs": [],
      "stateMutability": "nonpayable",
      "type": "function"
    }
  ],
  "bytecode": "0x608060405234801561000f575f80fd5b506103a38061001d5f395ff3fe608060405234801561000f575f80fd5b5060043610610029575f3560e01c80634180f4821461002d575b5f80fd5b6100476004803603810190610042919061020b565b610049565b005b7f5f1209b8bee73896ccd29d9eb4a0a6d8c808a7012252181ecbd23ceac06ce2288383834260405161007e949392919061031c565b60405180910390a1505050565b5f604051905090565b5f80fd5b5f80fd5b5f819050919050565b6100ae8161009c565b81146100b8575f80fd5b50565b5f813590506100c9816100a5565b92915050565b5f80fd5b5f80fd5b5f601f19601f8301169050919050565b7f4e487b71000000000000000000000000000000000000000000000000000000005f52604160045260245ffd5b61011d826100d7565b810181811067ffffffffffffffff8211171561013c5761013b6100e7565b5b80604052505050565b5f61014e61008b565b905061015a8282610114565b919050565b5f67ffffffffffffffff821115610179576101786100e7565b5b610182826100d7565b9050602081019050919050565b828183375f83830152505050565b5f6101af6101aa8461015f565b610145565b9050828152602081018484840111156101cb576101ca6100d3565b5b6101d684828561018f565b509392505050565b5f82601f8301126101f2576101f16100cf565b5b813561020284826020860161019d565b91505092915050565b5f805f6060848603121561022257610221610094565b5b5f61022f868287016100bb565b935050602084013567ffffffffffffffff8111156102505761024f610098565b5b61025c868287016101de565b925050604084013567ffffffffffffffff81111561027d5761027c610098565b5b610289868287016101de565b9150509250925092565b61029c8161009c565b82525050565b5f81519050919050565b5f82825260208201905092915050565b5f5b838110156102d95780820151818401526020810190506102be565b5f8484015250505050565b5f6102ee826102a2565b6102f881856102ac565b93506103088185602086016102bc565b610311816100d7565b840191505092915050565b5f60808201905061032f5f830187610293565b818103602083015261034181866102e4565b9050818103604083015261035581856102e4565b90506103646060830184610293565b9594505050505056fea26469706673582212200b97aec103b147131ef17a8e7f177395078e0ec5b66b1a079e071abed4aea4d864736f6c63430008150033",
  "immutableReferences": {},
  "source": "// SPDX-License-Identifier: MIT\npragma solidity ^0.8.0;\n\ncontract SupplyChain {\n\n    event ProductMoved(\n        uint productId,\n        string stage,\n        string location,\n        uint timestamp\n    );\n\n    function moveProduct(\n        uint productId,\n        string memory stage,\n        string memory location\n    ) public {\n        emit ProductMoved(productId, stage, location, block.timestamp);\n    }\n}\n",
  "sourcePath": "D:\\project tools\\blockchain supply chain\\blockchain\\contracts\\SupplyChain.sol",
  "compiler": {
    "name": "solc",
    "version": "0.8.21+commit.d9974bed.Emscripten.clang"
  },
  "schemaVersion": "3.4.16",
  "updatedAt": "2026-01-02T11:49:32.975Z",
  "devdoc": {
    "kind": "dev",
    "methods": {},
    "version": 1
  },
  "userdoc": {
    "kind": "user",
    "methods": {},
    "version": 1
  }
}